:1000160008001FE020207FF8A1083FF821083FF8DC
:100026000000FFFE00001FF010101FF010101FF060
:10003600000000007FFC400440045FF441044104DA
:100046004FE44104414441245FF4400440047FFCF2
:1000560000000000220821083910402043F87A08E1
:10006600A2082208FBF820A020A02920312422245F
:10007600041C0800000000007FE000200020102083
:10008600102010201FFC000400040004FFE40004FC
:1000960000040014000800001020102010FC2E247C
:1000A60023FE622464FCA4202EFC222022202BFEA8
:1000B6002420262029FE30000000010000803FFE9B
:1000C60020802FF820883FFE20882FF8288024C41F
:1000D60022A84490488892860100000010501048DB
:1000E6003C40205C41E0BC40105E11E0FC441048FE
:1000F600103010221452188A130600020000000065
:100106007FFE4002820402003FF80400090011004D
:100116003FF801000100FFFE0100010001000000A0
:10012600084010403F40555FD555555555555F55CC
:10013600555555557555155F1F4000400040000048
:10014600000000007FFE40024002400249124912B0
:100156004FF2491249524022400240027FFE0000FF
:100166000000000002801C80E7FC24882491000225
:100176008F84689808E0088018FC2882CF82000ED9
:100186000000000000000010401040104310411015
:10019600411041104110411041107F12010101022E
:1001A60001FC000000000000010006001FFFE00146
:1001B6001092138C1CF408122A922A92FFFE2A929D
:1001C6002A923E920812000000000002000C3FF046
:1001D60021022AC42AA82A92AA817FFE2AA02A904E
:1001E6002A882F9422222202000000000480088020
:1001F6003480E7FE24842488000209020904FFC82B
:100206000930922852441282021F00000000200882
:100216006008444844C8454846485C4845FF444849
:1002260044484448444844485008600800000000D8
:1005190002080001020A000020220C7FFFBFFFDF52
:10052900FFEFFFF7FFFBFFFDFFFEFFFF7FFFBFFFB1
:0D053900DFFFEFFFF7FFFBFFFDFFFEFFFF01
:10023600E4F52EF52FD2AFD2A8D2AAD288D28A75EB
:100246003000753109E5311531AE30700215304E8A
:100256006025E50B450A7009AF2FAE2E1204768095
:100266000DE50945087007AF2FAE2E1204037F0A6D
:100276007E001205F980CEE509640145087006E5A1
:100286000B450A600EE50B6401450A7013E5094546
:1002960008700D7402252FF52FE4352EF52E809F5C
:1002A600E509B4FF0BE508B4FF06E50B450A601344
:1002B600E50BF47003E50AF47085E509450860036B
:1002C60002024574FE252FF52F74FF352EF52ED329
:1002D600E52F940EE52E94015003020245752E017A
:0602E600752F0E02024517
:0B0547003535F583E493FF3395E0FEAB
:10055200E4FDC2A0EF3392A1EF25E0FFEE33FED21D
:0B056200A00DBD08EDC2A20000D2A257
:01056D00226B
:1005BA00E4FBFAC2A3EE3392A4EF25E0FFEE33FE8A
:1005CA00D2A30BBB00010AEB64104A70E6C2A50075
:0205DA00D2A5A8
:0105DC0022FC
:1005F900D3EF9400EE9400400DE4FD0DBD7CFCEFBB
:060609001F70ED1E80EAE7
:01060F0022C8
:040476008E328F3300
:10047A00E4F534E53425E0240CF8E6FE08E6FF123C
:10048A0005BAE53475F002A4FFAEF02533FDE53276
:10049A003EFCF5358D36D3ED940EEC6480948140A4
:1004AA0013E5332FFFE5323EFE7C017D10120378FF
:1004BA008C358D3674162536F5827400120547740C
:1004CA00172536F58274001205477F017E00120552
:0A04DA00F90534E534C3941040998D
:0104E40022F5
:1005DD00E4FDC2A0EE3392A1EF25E0FFEE33FED293
:0B05ED00A00DBD10EDC2A20000D2A2C4
:0105F80022E0
:1004E5003535F583E493FF3395E0FEEFF4FFEEF445
:0104F500FE08
:1004F600E4FBFAC2A3EF3392A4EF25E0FFEE33FE4E
:10050600D2A30BBB00010AEB64084A70E6C2A50041
:02051600D2A56C
:0105180022C0
:040403008E328F3373
:10040700E4F534E53425E0240CF8E6FE08E6F4FFCD
:10041700EEF4FE1205DDE53475F002A4FFAEF0251B
:1004270033FDE5323EFCF5358D36D3ED940EEC64A5
:100437008094814013E5332FFFE5323EFE7C017D3A
:10044700101203788C358D3674262536F5827401A3
:100457001204E574272536F58274011204E57F013D
:0E0467007E001205F90534E534C3941040956B
:010475002264
:0300030002056E85
:10056E00C0E0C0D0E509450870067508FF7509FFA3
:10057E00750A00750B00C3E49509F509E49508F5B5
:06058E0008D0D0D0E032DD
:030013000205944F
:10059400C0E0C0D0E50B450A7006750AFF750BFF75
:1005A400750800750900C3E4950BF50BE4950AF58D
:0605B4000AD0D0D0E032B5
:030000000202EC0D
:0C02EC00787FE4F6D8FD758136020333FC
:10037800C2D5EC30E709B2D5E4C39DFDE49CFCEEA0
:1003880030E715B2D5E4C39FFFE49EFE1203AEC367
:10039800E49DFDE49CFC80031203AE30D507C3E462
:0603A8009FFFE49EFE220F
:1002F800020236E493A3F8E493A34003F68001F2E4
:1003080008DFF48029E493A3F85407240CC8C33306
:10031800C4540F4420C8834004F456800146F6DFD5
:10032800E4800B0102040810204080900519E47E47
:10033800019360BCA3FF543F30E509541FFEE493CA
:10034800A360010ECF54C025E060A840B8E493A391
:10035800FAE493A3F8E493A3C8C582C8CAC583CABC
:10036800F0A3C8C582C8CAC583CADFE9DEE780BE74
:0105460000B4
:1003AE00BC000BBE0029EF8DF084FFADF022E4CC33
:1003BE00F875F008EF2FFFEE33FEEC33FCEE9DECFC
:1003CE00984005FCEE9DFE0FD5F0E9E4CEFD22ED42
:1003DE00F8F5F0EE8420D21CFEADF075F008EF2F8C
:1003EE00FFED33FD4007985006D5F0F222C398FD7D
:0503FE000FD5F0EA221A
:00000001FF
